{
  "contractName": "ProjanskySales",
  "abi": [
    {
      "constant": true,
      "inputs": [
        {
          "name": "",
          "type": "uint256"
        }
      ],
      "name": "firstSalePrices",
      "outputs": [
        {
          "name": "",
          "type": "uint256"
        }
      ],
      "payable": false,
      "stateMutability": "view",
      "type": "function"
    },
    {
      "constant": true,
      "inputs": [],
      "name": "royaltyPercentage",
      "outputs": [
        {
          "name": "",
          "type": "uint256"
        }
      ],
      "payable": false,
      "stateMutability": "view",
      "type": "function"
    },
    {
      "constant": true,
      "inputs": [],
      "name": "nftContract",
      "outputs": [
        {
          "name": "",
          "type": "address"
        }
      ],
      "payable": false,
      "stateMutability": "view",
      "type": "function"
    },
    {
      "constant": true,
      "inputs": [
        {
          "name": "",
          "type": "uint256"
        }
      ],
      "name": "tokenCreators",
      "outputs": [
        {
          "name": "",
          "type": "address"
        }
      ],
      "payable": false,
      "stateMutability": "view",
      "type": "function"
    },
    {
      "constant": true,
      "inputs": [
        {
          "name": "",
          "type": "uint256"
        }
      ],
      "name": "tokenPrices",
      "outputs": [
        {
          "name": "",
          "type": "uint256"
        }
      ],
      "payable": false,
      "stateMutability": "view",
      "type": "function"
    },
    {
      "inputs": [
        {
          "name": "_nftAddress",
          "type": "address"
        },
        {
          "name": "_royaltyPercentage",
          "type": "uint256"
        }
      ],
      "payable": false,
      "stateMutability": "nonpayable",
      "type": "constructor"
    },
    {
      "anonymous": false,
      "inputs": [
        {
          "indexed": true,
          "name": "payer",
          "type": "address"
        },
        {
          "indexed": false,
          "name": "tokenId",
          "type": "uint256"
        },
        {
          "indexed": false,
          "name": "amount",
          "type": "uint256"
        },
        {
          "indexed": false,
          "name": "balance",
          "type": "uint256"
        }
      ],
      "name": "Received",
      "type": "event"
    },
    {
      "constant": false,
      "inputs": [
        {
          "name": "_tokenId",
          "type": "uint256"
        }
      ],
      "name": "purchase",
      "outputs": [],
      "payable": true,
      "stateMutability": "payable",
      "type": "function"
    },
    {
      "constant": false,
      "inputs": [
        {
          "name": "_tokenId",
          "type": "uint256"
        },
        {
          "name": "_price",
          "type": "uint256"
        }
      ],
      "name": "setTokenPrice",
      "outputs": [],
      "payable": false,
      "stateMutability": "nonpayable",
      "type": "function"
    }
  ],
  "bytecode": "0x608060405234801561001057600080fd5b506040516040806109ea8339810180604052604081101561003057600080fd5b81019080805190602001909291908051906020019092919050505081600360006101000a81548173ffffffffffffffffffffffffffffffffffffffff021916908373ffffffffffffffffffffffffffffffffffffffff160217905550806004819055505050610946806100a46000396000f3fe6080604052600436106100705760003560e01c8063e0fd045f1161004e578063e0fd045f14610146578063e5afe3e6146101c1578063eb685c4714610210578063efef39a11461025557610070565b806332b608a4146100755780638a71bb2d146100c4578063d56d229d146100ef575b600080fd5b34801561008157600080fd5b506100ae6004803603602081101561009857600080fd5b8101908080359060200190929190505050610283565b6040518082815260200191505060405180910390f35b3480156100d057600080fd5b506100d961029b565b6040518082815260200191505060405180910390f35b3480156100fb57600080fd5b506101046102a1565b604051808273ffffffffffffffffffffffffffffffffffffffff1673ffffffffffffffffffffffffffffffffffffffff16815260200191505060405180910390f35b34801561015257600080fd5b5061017f6004803603602081101561016957600080fd5b81019080803590602001909291905050506102c7565b604051808273ffffffffffffffffffffffffffffffffffffffff1673ffffffffffffffffffffffffffffffffffffffff16815260200191505060405180910390f35b3480156101cd57600080fd5b506101fa600480360360208110156101e457600080fd5b81019080803590602001909291905050506102fa565b6040518082815260200191505060405180910390f35b34801561021c57600080fd5b506102536004803603604081101561023357600080fd5b810190808035906020019092919080359060200190929190505050610312565b005b6102816004803603602081101561026b57600080fd5b8101908080359060200190929190505050610426565b005b60006020528060005260406000206000915090505481565b60045481565b600360009054906101000a900473ffffffffffffffffffffffffffffffffffffffff1681565b60026020528060005260406000206000915054906101000a900473ffffffffffffffffffffffffffffffffffffffff1681565b60016020528060005260406000206000915090505481565b6000811161031f57600080fd5b6000600360009054906101000a900473ffffffffffffffffffffffffffffffffffffffff1673ffffffffffffffffffffffffffffffffffffffff16636352211e846040518263ffffffff1660e01b81526004018082815260200191505060206040518083038186803b15801561039457600080fd5b505afa1580156103a8573d6000803e3d6000fd5b505050506040513d60208110156103be57600080fd5b810190808051906020019092919050505090508073ffffffffffffffffffffffffffffffffffffffff163373ffffffffffffffffffffffffffffffffffffffff161461040957600080fd5b816001600085815260200190815260200160002081905550505050565b600073ffffffffffffffffffffffffffffffffffffffff163373ffffffffffffffffffffffffffffffffffffffff161415801561048f57503073ffffffffffffffffffffffffffffffffffffffff163373ffffffffffffffffffffffffffffffffffffffff1614155b61049857600080fd5b60016000828152602001908152602001600020543410156104b857600080fd5b6000600360009054906101000a900473ffffffffffffffffffffffffffffffffffffffff1673ffffffffffffffffffffffffffffffffffffffff16636352211e836040518263ffffffff1660e01b81526004018082815260200191505060206040518083038186803b15801561052d57600080fd5b505afa158015610541573d6000803e3d6000fd5b505050506040513d602081101561055757600080fd5b810190808051906020019092919050505090508073ffffffffffffffffffffffffffffffffffffffff166002600084815260200190815260200160002060009054906101000a900473ffffffffffffffffffffffffffffffffffffffff1673ffffffffffffffffffffffffffffffffffffffff16146106e057600080838152602001908152602001600020543411156106df57600034905060006064600454816105fd57fe5b0460008086815260200190815260200160002054340302905080820391506002600085815260200190815260200160002060009054906101000a900473ffffffffffffffffffffffffffffffffffffffff1673ffffffffffffffffffffffffffffffffffffffff166108fc829081150290604051600060405180830381858888f19350505050158015610694573d6000803e3d6000fd5b508273ffffffffffffffffffffffffffffffffffffffff166108fc839081150290604051600060405180830381858888f193505050501580156106db573d6000803e3d6000fd5b5050505b5b6000806000848152602001908152602001600020541415610765573460008084815260200190815260200160002081905550806002600084815260200190815260200160002060006101000a81548173ffffffffffffffffffffffffffffffffffffffff021916908373ffffffffffffffffffffffffffffffffffffffff1602179055505b600360009054906101000a900473ffffffffffffffffffffffffffffffffffffffff1673ffffffffffffffffffffffffffffffffffffffff166342842e0e8233856040518463ffffffff1660e01b8152600401808473ffffffffffffffffffffffffffffffffffffffff1673ffffffffffffffffffffffffffffffffffffffff1681526020018373ffffffffffffffffffffffffffffffffffffffff1673ffffffffffffffffffffffffffffffffffffffff1681526020018281526020019350505050600060405180830381600087803b15801561084257600080fd5b505af1158015610856573d6000803e3d6000fd5b505050508073ffffffffffffffffffffffffffffffffffffffff166108fc349081150290604051600060405180830381858888f193505050501580156108a0573d6000803e3d6000fd5b503373ffffffffffffffffffffffffffffffffffffffff167f02d08db2db312fc60b41a046c46a7772a6c2dcdca0c32a9d3423c6dcbde693e983343073ffffffffffffffffffffffffffffffffffffffff163160405180848152602001838152602001828152602001935050505060405180910390a2505056fea165627a7a723058204bacc808c8881ca04eae937ceccb1a15aed85ee2d3ee9408b37ec56075eecf040029",
  "source": "pragma solidity ^0.5.3;\nimport \"./openzeppelin/token/ERC721/ERC721Full.sol\";\n\ncontract ProjanskySales {\n    event Received(address indexed payer, uint tokenId, uint256 amount, uint256 balance);\n\n    mapping (uint256 => uint256) public firstSalePrices; // tokenId -> price mapping\n    mapping (uint256 => uint256) public tokenPrices; // tokenId -> price mapping\n    mapping (uint256 => address payable) public tokenCreators;\n    ERC721 public nftContract; // the non-fungible token contract\n    uint public royaltyPercentage;\n\n    constructor(address _nftAddress, uint _royaltyPercentage) public {\n        nftContract = ERC721(_nftAddress);\n        royaltyPercentage = _royaltyPercentage;\n\n    }\n\n    function purchase(uint256 _tokenId) public payable {\n        require(msg.sender != address(0) && msg.sender != address(this));\n        require(msg.value >= tokenPrices[_tokenId]);\n        \n\n        address payable tokenSeller =\n          address(uint160(nftContract.ownerOf(_tokenId)));\n\n\n\n         if (tokenCreators[_tokenId] !=tokenSeller) {\n          if(msg.value>firstSalePrices[_tokenId]){//if sale price is greater than initial sale price\n          uint amount = msg.value;\n          uint royaltyFee = (msg.value-firstSalePrices[_tokenId])*(royaltyPercentage/100);\n          amount = amount - royaltyFee;\n          tokenCreators[_tokenId].transfer(royaltyFee);\n          tokenSeller.transfer(amount);\n            }\n        }\n\n        if (firstSalePrices[_tokenId]==0) {\n          firstSalePrices[_tokenId] = msg.value;\n          tokenCreators[_tokenId] =tokenSeller;\n        }\n\n        nftContract.safeTransferFrom(tokenSeller, msg.sender, _tokenId);\n        tokenSeller.transfer(msg.value);\n        emit Received(msg.sender, _tokenId, msg.value, address(this).balance);\n    }\n\n    function setTokenPrice(uint256 _tokenId, uint256 _price) public {\n      require(_price > 0);\n      address tokenOwner = nftContract.ownerOf(_tokenId);\n      require(msg.sender == tokenOwner); // ensure only token owner can set\n      tokenPrices[_tokenId] = _price;\n    }\n  }\n",
  "sourcePath": "/Users/varun/Coding/ProjanskyContract/projansky-contract/contracts/ProjanskySales.sol",
  "compiler": {
    "name": "solc",
    "version": "0.5.8+commit.23d335f2.Emscripten.clang"
  },
  "schemaVersion": "3.0.11",
  "updatedAt": "2019-07-21T14:09:28.076Z",
  "devdoc": {
    "methods": {}
  },
  "userdoc": {
    "methods": {}
  }
}